{"abi":[{"type":"constructor","inputs":[{"name":"_g","type":"uint256","internalType":"uint256"},{"name":"_p","type":"uint256","internalType":"uint256"},{"name":"_q","type":"uint256","internalType":"uint256"}],"stateMutability":"nonpayable"},{"type":"function","name":"N","inputs":[],"outputs":[{"name":"","type":"uint256","internalType":"uint256"}],"stateMutability":"view"},{"type":"function","name":"accum","inputs":[],"outputs":[{"name":"","type":"uint256","internalType":"uint256"}],"stateMutability":"view"},{"type":"function","name":"base","inputs":[],"outputs":[{"name":"","type":"uint256","internalType":"uint256"}],"stateMutability":"view"},{"type":"function","name":"candidateCount","inputs":[],"outputs":[{"name":"","type":"uint256","internalType":"uint256"}],"stateMutability":"view"},{"type":"function","name":"candidates","inputs":[{"name":"","type":"uint256","internalType":"uint256"}],"outputs":[{"name":"","type":"address","internalType":"address"}],"stateMutability":"view"},{"type":"function","name":"changeOwner","inputs":[{"name":"newOwner","type":"address","internalType":"address"}],"outputs":[],"stateMutability":"nonpayable"},{"type":"function","name":"computeH","inputs":[],"outputs":[],"stateMutability":"nonpayable"},{"type":"function","name":"g","inputs":[],"outputs":[{"name":"","type":"uint256","internalType":"uint256"}],"stateMutability":"view"},{"type":"function","name":"nextState","inputs":[],"outputs":[],"stateMutability":"nonpayable"},{"type":"function","name":"owner","inputs":[],"outputs":[{"name":"","type":"address","internalType":"address"}],"stateMutability":"view"},{"type":"function","name":"p","inputs":[],"outputs":[{"name":"","type":"uint256","internalType":"uint256"}],"stateMutability":"view"},{"type":"function","name":"q","inputs":[],"outputs":[{"name":"","type":"uint256","internalType":"uint256"}],"stateMutability":"view"},{"type":"function","name":"registerCandidate","inputs":[{"name":"candidateId","type":"uint256","internalType":"uint256"},{"name":"candidateEOA","type":"address","internalType":"address"}],"outputs":[],"stateMutability":"nonpayable"},{"type":"function","name":"registerVoters","inputs":[{"name":"accounts","type":"address[]","internalType":"address[]"}],"outputs":[],"stateMutability":"nonpayable"},{"type":"function","name":"tally","inputs":[],"outputs":[],"stateMutability":"nonpayable"},{"type":"function","name":"vote","inputs":[{"name":"gX","type":"uint256","internalType":"uint256"},{"name":"Y","type":"uint256","internalType":"uint256"},{"name":"c","type":"uint256","internalType":"uint256"},{"name":"proofs","type":"tuple[]","internalType":"struct Bulletin.Proof[]","components":[{"name":"r","type":"uint256","internalType":"uint256"},{"name":"d","type":"uint256","internalType":"uint256"},{"name":"a","type":"uint256","internalType":"uint256"},{"name":"b","type":"uint256","internalType":"uint256"}]}],"outputs":[],"stateMutability":"nonpayable"},{"type":"function","name":"voterList","inputs":[{"name":"","type":"uint256","internalType":"uint256"}],"outputs":[{"name":"","type":"address","internalType":"address"}],"stateMutability":"view"},{"type":"function","name":"voterSignup","inputs":[{"name":"X","type":"uint256","internalType":"uint256"},{"name":"gV","type":"uint256","internalType":"uint256"},{"name":"phi","type":"uint256","internalType":"uint256"},{"name":"n","type":"uint256","internalType":"uint256"}],"outputs":[],"stateMutability":"nonpayable"},{"type":"function","name":"voters","inputs":[{"name":"","type":"address","internalType":"address"}],"outputs":[{"name":"registered","type":"bool","internalType":"bool"},{"name":"voted","type":"bool","internalType":"bool"},{"name":"X","type":"uint256","internalType":"uint256"},{"name":"h","type":"uint256","internalType":"uint256"},{"name":"Y","type":"uint256","internalType":"uint256"}],"stateMutability":"view"},{"type":"event","name":"CandidateRegistered","inputs":[{"name":"candidateId","type":"uint256","indexed":true,"internalType":"uint256"},{"name":"candidateEOA","type":"address","indexed":true,"internalType":"address"}],"anonymous":false},{"type":"event","name":"OwnerChanged","inputs":[{"name":"oldOwner","type":"address","indexed":true,"internalType":"address"},{"name":"newOwner","type":"address","indexed":true,"internalType":"address"}],"anonymous":false},{"type":"event","name":"VoteCast","inputs":[{"name":"voter","type":"address","indexed":true,"internalType":"address"},{"name":"gX","type":"uint256","indexed":false,"internalType":"uint256"},{"name":"Y","type":"uint256","indexed":false,"internalType":"uint256"}],"anonymous":false},{"type":"event","name":"Voted","inputs":[{"name":"eoaHash","type":"bytes32","indexed":true,"internalType":"bytes32"},{"name":"candidateId","type":"uint256","indexed":true,"internalType":"uint256"},{"name":"X","type":"uint256","indexed":false,"internalType":"uint256"}],"anonymous":false},{"type":"event","name":"VoterRegistered","inputs":[{"name":"eoca","type":"address","indexed":true,"internalType":"address"}],"anonymous":false},{"type":"event","name":"stateChange","inputs":[{"name":"s","type":"uint8","indexed":false,"internalType":"uint8"}],"anonymous":false},{"type":"event","name":"voterSignupEvent","inputs":[{"name":"eoa","type":"address","indexed":true,"internalType":"address"},{"name":"X","type":"uint256","indexed":false,"internalType":"uint256"}],"anonymous":false}],"bytecode":{"object":"0x608060405234801561000f575f5ffd5b50604051613818380380613818833981810160405281019061003191906101c0565b60028111610074576040517f08c379a000000000000000000000000000000000000000000000000000000000815260040161006b9061026a565b60405180910390fd5b8181106100b6576040517f08c379a00000000000000000000000000000000000000000000000000000000081526004016100ad906102d2565b60405180910390fd5b6001831180156100c557508083105b610104576040517f08c379a00000000000000000000000000000000000000000000000000000000081526004016100fb9061033a565b60405180910390fd5b335f5f6101000a81548173ffffffffffffffffffffffffffffffffffffffff021916908373ffffffffffffffffffffffffffffffffffffffff1602179055508260018190555080600281905550816003819055505f60065f6101000a81548160ff021916908360ff1602179055505f6004819055506010600581905550505050610358565b5f5ffd5b5f819050919050565b61019f8161018d565b81146101a9575f5ffd5b50565b5f815190506101ba81610196565b92915050565b5f5f5f606084860312156101d7576101d6610189565b5b5f6101e4868287016101ac565b93505060206101f5868287016101ac565b9250506040610206868287016101ac565b9150509250925092565b5f82825260208201905092915050565b7f71206d757374206265203e2032000000000000000000000000000000000000005f82015250565b5f610254600d83610210565b915061025f82610220565b602082019050919050565b5f6020820190508181035f83015261028181610248565b9050919050565b7f71206d757374206265203c2070000000000000000000000000000000000000005f82015250565b5f6102bc600d83610210565b91506102c782610288565b602082019050919050565b5f6020820190508181035f8301526102e9816102b0565b9050919050565b7f67206d7573742062652032203c3d2067203c20710000000000000000000000005f82015250565b5f610324601483610210565b915061032f826102f0565b602082019050919050565b5f6020820190508181035f83015261035181610318565b9050919050565b6134b3806103655f395ff3fe608060405234801561000f575f5ffd5b506004361061011f575f3560e01c80639ae8886a116100ab578063c9e525df1161006f578063c9e525df146102bf578063d55ec9c1146102dd578063de302a57146102f9578063e2179b8e14610315578063fd3ab282146103335761011f565b80639ae8886a14610217578063a3ec138d14610235578063a6f9dae114610269578063a9a981a314610285578063c2f0e415146102a35761011f565b80634830a136116100f25780634830a136146101855780635001f3b5146101a157806350e2e8af146101bf5780638da5cb5b146101ef5780639741e0ba1461020d5761011f565b806314007c6d146101235780633477ee2e1461012d578063410673e51461015d578063435db5ca14610167575b5f5ffd5b61012b610351565b005b610147600480360381019061014291906120c5565b6104ee565b604051610154919061212f565b60405180910390f35b61016561051e565b005b61016f6106dc565b60405161017c9190612157565b60405180910390f35b61019f600480360381019061019a919061219a565b6106e2565b005b6101a961092c565b6040516101b69190612157565b60405180910390f35b6101d960048036038101906101d491906120c5565b610932565b6040516101e6919061212f565b60405180910390f35b6101f761096d565b604051610204919061212f565b60405180910390f35b610215610991565b005b61021f610f59565b60405161022c9190612157565b60405180910390f35b61024f600480360381019061024a91906121d8565b610f5f565b60405161026095949392919061221d565b60405180910390f35b610283600480360381019061027e91906121d8565b610fa9565b005b61028d611166565b60405161029a9190612157565b60405180910390f35b6102bd60048036038101906102b89190612437565b61116c565b005b6102c7611735565b6040516102d49190612157565b60405180910390f35b6102f760048036038101906102f29190612577565b61173b565b005b610313600480360381019061030e91906125be565b6119fc565b005b61031d611d5f565b60405161032a9190612157565b60405180910390f35b61033b611d65565b6040516103489190612157565b60405180910390f35b5f5f9054906101000a900473ffffffffffffffffffffffffffffffffffffffff1673ffffffffffffffffffffffffffffffffffffffff163373ffffffffffffffffffffffffffffffffffffffff16146103df576040517f08c379a00000000000000000000000000000000000000000000000000000000081526004016103d69061267c565b60405180910390fd5b600160065f9054906101000a900460ff166103fa91906126d3565b60065f6101000a81548160ff021916908360ff1602179055506104636040518060400160405280600981526020017f4e6577205374617465000000000000000000000000000000000000000000000081525060065f9054906101000a900460ff1660ff16611d6b565b600260065f9054906101000a900460ff1660ff160361048557610484610991565b5b600360065f9054906101000a900460ff1660ff16036104a7576104a661051e565b5b7f45f2fef6c61e25b553da580bc9f711ea1c431c244c2679f0abefbd95446b0dfb60065f9054906101000a900460ff166040516104e49190612716565b60405180910390a1565b600a602052805f5260405f205f915054906101000a900473ffffffffffffffffffffffffffffffffffffffff1681565b5f60098054905090505f600190505f5f90505b82811015610691576105f36040518060400160405280600381526020017f59203a000000000000000000000000000000000000000000000000000000000081525060085f600985815481106105895761058861272f565b5b905f5260205f20015f9054906101000a900473ffffffffffffffffffffffffffffffffffffffff1673ffffffffffffffffffffffffffffffffffffffff1673ffffffffffffffffffffffffffffffffffffffff1681526020019081526020015f2060030154611d6b565b600354806106045761060361275c565b5b60085f6009848154811061061b5761061a61272f565b5b905f5260205f20015f9054906101000a900473ffffffffffffffffffffffffffffffffffffffff1673ffffffffffffffffffffffffffffffffffffffff1673ffffffffffffffffffffffffffffffffffffffff1681526020019081526020015f2060030154830991508080600101915050610531565b506106d16040518060400160405280600881526020017f616363756d203a2000000000000000000000000000000000000000000000000081525082611d6b565b806007819055505050565b60075481565b5f5f9054906101000a900473ffffffffffffffffffffffffffffffffffffffff1673ffffffffffffffffffffffffffffffffffffffff163373ffffffffffffffffffffffffffffffffffffffff1614610770576040517f08c379a00000000000000000000000000000000000000000000000000000000081526004016107679061267c565b60405180910390fd5b5f73ffffffffffffffffffffffffffffffffffffffff168173ffffffffffffffffffffffffffffffffffffffff16036107de576040517f08c379a00000000000000000000000000000000000000000000000000000000081526004016107d5906127d3565b60405180910390fd5b5f73ffffffffffffffffffffffffffffffffffffffff16600a5f8481526020019081526020015f205f9054906101000a900473ffffffffffffffffffffffffffffffffffffffff1673ffffffffffffffffffffffffffffffffffffffff161461087c576040517f08c379a00000000000000000000000000000000000000000000000000000000081526004016108739061283b565b60405180910390fd5b80600a5f8481526020019081526020015f205f6101000a81548173ffffffffffffffffffffffffffffffffffffffff021916908373ffffffffffffffffffffffffffffffffffffffff1602179055506001600b5f8282546108dd9190612859565b925050819055508073ffffffffffffffffffffffffffffffffffffffff16827ff1ea2573ddf2ce6e931102024c2b67e7d23a5e33614f19c27f5a5aaf1d59c08860405160405180910390a35050565b60055481565b60098181548110610941575f80fd5b905f5260205f20015f915054906101000a900473ffffffffffffffffffffffffffffffffffffffff1681565b5f5f9054906101000a900473ffffffffffffffffffffffffffffffffffffffff1681565b6109cf6040518060400160405280601081526020017f52756e6e696e6720436f6d707574654800000000000000000000000000000000815250611e07565b5f60098054905090505f81036109e55750610f57565b5f8167ffffffffffffffff811115610a00576109ff612282565b5b604051908082528060200260200182016040528015610a2e5781602001602082028036833780820191505090505b5090505f8267ffffffffffffffff811115610a4c57610a4b612282565b5b604051908082528060200260200182016040528015610a7a5781602001602082028036833780820191505090505b5090505f600190505f5f90505b84811015610bd05781848281518110610aa357610aa261272f565b5b6020026020010181815250505f60085f60098481548110610ac757610ac661272f565b5b905f5260205f20015f9054906101000a900473ffffffffffffffffffffffffffffffffffffffff1673ffffffffffffffffffffffffffffffffffffffff1673ffffffffffffffffffffffffffffffffffffffff1681526020019081526020015f206001015414610bc35760035480610b4257610b4161275c565b5b60085f60098481548110610b5957610b5861272f565b5b905f5260205f20015f9054906101000a900473ffffffffffffffffffffffffffffffffffffffff1673ffffffffffffffffffffffffffffffffffffffff1673ffffffffffffffffffffffffffffffffffffffff1681526020019081526020015f2060010154830991505b8080600101915050610a87565b50600190505f8490505b5f811115610d67578183600183610bf1919061288c565b81518110610c0257610c0161272f565b5b6020026020010181815250505f60085f6009600185610c21919061288c565b81548110610c3257610c3161272f565b5b905f5260205f20015f9054906101000a900473ffffffffffffffffffffffffffffffffffffffff1673ffffffffffffffffffffffffffffffffffffffff1673ffffffffffffffffffffffffffffffffffffffff1681526020019081526020015f206001015414610d545760035480610cad57610cac61275c565b5b610d4f60085f6009600186610cc2919061288c565b81548110610cd357610cd261272f565b5b905f5260205f20015f9054906101000a900473ffffffffffffffffffffffffffffffffffffffff1673ffffffffffffffffffffffffffffffffffffffff1673ffffffffffffffffffffffffffffffffffffffff1681526020019081526020015f20600101546002600354610d47919061288c565b600354611ea0565b830991505b8080610d5f906128bf565b915050610bda565b505f5f90505b84811015610f51575f60085f60098481548110610d8d57610d8c61272f565b5b905f5260205f20015f9054906101000a900473ffffffffffffffffffffffffffffffffffffffff1673ffffffffffffffffffffffffffffffffffffffff1673ffffffffffffffffffffffffffffffffffffffff1681526020019081526020015f206001015414610ec35760035480610e0857610e0761275c565b5b838281518110610e1b57610e1a61272f565b5b6020026020010151858381518110610e3657610e3561272f565b5b60200260200101510960085f60098481548110610e5657610e5561272f565b5b905f5260205f20015f9054906101000a900473ffffffffffffffffffffffffffffffffffffffff1673ffffffffffffffffffffffffffffffffffffffff1673ffffffffffffffffffffffffffffffffffffffff1681526020019081526020015f2060020181905550610f44565b5f60085f60098481548110610edb57610eda61272f565b5b905f5260205f20015f9054906101000a900473ffffffffffffffffffffffffffffffffffffffff1673ffffffffffffffffffffffffffffffffffffffff1673ffffffffffffffffffffffffffffffffffffffff1681526020019081526020015f20600201819055505b8080600101915050610d6d565b50505050505b565b60035481565b6008602052805f5260405f205f91509050805f015f9054906101000a900460ff1690805f0160019054906101000a900460ff16908060010154908060020154908060030154905085565b5f5f9054906101000a900473ffffffffffffffffffffffffffffffffffffffff1673ffffffffffffffffffffffffffffffffffffffff163373ffffffffffffffffffffffffffffffffffffffff1614611037576040517f08c379a000000000000000000000000000000000000000000000000000000000815260040161102e9061267c565b60405180910390fd5b5f73ffffffffffffffffffffffffffffffffffffffff168173ffffffffffffffffffffffffffffffffffffffff16036110a5576040517f08c379a000000000000000000000000000000000000000000000000000000000815260040161109c90612930565b60405180910390fd5b5f5f5f9054906101000a900473ffffffffffffffffffffffffffffffffffffffff169050815f5f6101000a81548173ffffffffffffffffffffffffffffffffffffffff021916908373ffffffffffffffffffffffffffffffffffffffff1602179055508173ffffffffffffffffffffffffffffffffffffffff168173ffffffffffffffffffffffffffffffffffffffff167fb532073b38c83145e3e5135377a08bf9aab55bc0fd7c1179cd4fb995d2a5159c60405160405180910390a35050565b600b5481565b600260065f9054906101000a900460ff1660ff16146111c0576040517f08c379a00000000000000000000000000000000000000000000000000000000081526004016111b790612998565b60405180910390fd5b5f60085f3373ffffffffffffffffffffffffffffffffffffffff1673ffffffffffffffffffffffffffffffffffffffff1681526020019081526020015f209050805f015f9054906101000a900460ff1661124f576040517f08c379a000000000000000000000000000000000000000000000000000000000815260040161124690612a00565b60405180910390fd5b805f0160019054906101000a900460ff16156112a0576040517f08c379a000000000000000000000000000000000000000000000000000000000815260040161129790612a68565b60405180910390fd5b5f8160020154036112e6576040517f08c379a00000000000000000000000000000000000000000000000000000000081526004016112dd90612af6565b60405180910390fd5b6001600b546112f59190612859565b825114611337576040517f08c379a000000000000000000000000000000000000000000000000000000000815260040161132e90612b5e565b60405180910390fd5b5f825190505f8686604051602001611350929190612b9c565b60405160208183030381529060405290505f5f90505b828110156113dd57818582815181106113825761138161272f565b5b6020026020010151604001518683815181106113a1576113a061272f565b5b6020026020010151606001516040516020016113bf93929190612c19565b60405160208183030381529060405291508080600101915050611366565b505f60025482805190602001205f1c6113f69190612c51565b905085811461143a576040517f08c379a000000000000000000000000000000000000000000000000000000000815260040161143190612cf1565b60405180910390fd5b5f5f90505f5f90505b848110156114845786818151811061145e5761145d61272f565b5b602002602001015160200151826114759190612859565b91508080600101915050611443565b5086600254826114949190612c51565b146114d4576040517f08c379a00000000000000000000000000000000000000000000000000000000081526004016114cb90612d7f565b60405180910390fd5b5f856002015490505f5f90505b858110156116b3575f8882815181106114fd576114fc61272f565b5b602002602001015190505f600354806115195761151861275c565b5b61152a8e8460200151600354611ea0565b61153c600154855f0151600354611ea0565b09905061157e6040518060400160405280600481526020017f61203a200000000000000000000000000000000000000000000000000000000081525082611d6b565b816040015181146115c4576040517f08c379a00000000000000000000000000000000000000000000000000000000081526004016115bb90612e0d565b60405180910390fd5b505f6115ee6001546115e660028660046115de9190612e2b565b600254611ea0565b600354611ea0565b90505f61160c826002600354611604919061288c565b600354611ea0565b90505f600354806116205761161f61275c565b5b828f0990505f600354806116375761163661275c565b5b611648838760200151600354611ea0565b61165889885f0151600354611ea0565b099050846060015181146116a1576040517f08c379a000000000000000000000000000000000000000000000000000000000815260040161169890612edc565b60405180910390fd5b505050505080806001019150506114e1565b506001865f0160016101000a81548160ff0219169083151502179055508886600301819055503373ffffffffffffffffffffffffffffffffffffffff167fb4cfecf70861b7b150d8337780d34fb4cbc2114b5fb1fe51a5c5fca1849f72748b8b604051611721929190612efa565b60405180910390a250505050505050505050565b60045481565b5f5f9054906101000a900473ffffffffffffffffffffffffffffffffffffffff1673ffffffffffffffffffffffffffffffffffffffff163373ffffffffffffffffffffffffffffffffffffffff16146117c9576040517f08c379a00000000000000000000000000000000000000000000000000000000081526004016117c09061267c565b60405180910390fd5b5f5f90505b81518110156119f8575f8282815181106117eb576117ea61272f565b5b6020026020010151905060085f8273ffffffffffffffffffffffffffffffffffffffff1673ffffffffffffffffffffffffffffffffffffffff1681526020019081526020015f205f015f9054906101000a900460ff1615611881576040517f08c379a000000000000000000000000000000000000000000000000000000000815260040161187890612f6b565b60405180910390fd5b6040518060a001604052806001151581526020015f151581526020015f81526020015f81526020015f81525060085f8373ffffffffffffffffffffffffffffffffffffffff1673ffffffffffffffffffffffffffffffffffffffff1681526020019081526020015f205f820151815f015f6101000a81548160ff0219169083151502179055506020820151815f0160016101000a81548160ff021916908315150217905550604082015181600101556060820151816002015560808201518160030155905050600981908060018154018082558091505060019003905f5260205f20015f9091909190916101000a81548173ffffffffffffffffffffffffffffffffffffffff021916908373ffffffffffffffffffffffffffffffffffffffff1602179055508073ffffffffffffffffffffffffffffffffffffffff167fb6be2187d059cc2a55fe29e0e503b566e1e0f8c8780096e185429350acffd3dd60405160405180910390a25080806001019150506117ce565b5050565b611a4c60065f9054906101000a900460ff1660ff166040518060400160405280600681526020017f203a2064666a0000000000000000000000000000000000000000000000000000815250611f97565b600160065f9054906101000a900460ff1660ff1614611aa0576040517f08c379a0000000000000000000000000000000000000000000000000000000008152600401611a9790612fd3565b60405180910390fd5b5f6002546001548686604051602001611abb93929190612ff1565b604051602081830303815290604052805190602001205f1c611add9190612c51565b9050808214611b21576040517f08c379a0000000000000000000000000000000000000000000000000000000008152600401611b1890613077565b60405180910390fd5b6003548510611b65576040517f08c379a0000000000000000000000000000000000000000000000000000000008152600401611b5c906130df565b60405180910390fd5b6003548410611ba9576040517f08c379a0000000000000000000000000000000000000000000000000000000008152600401611ba090613147565b60405180910390fd5b5f60085f3373ffffffffffffffffffffffffffffffffffffffff1673ffffffffffffffffffffffffffffffffffffffff1681526020019081526020015f206001015414611c2b576040517f08c379a0000000000000000000000000000000000000000000000000000000008152600401611c22906131af565b60405180910390fd5b5f8490505f611c3f60015486600354611ea0565b90505f611c4f8886600354611ea0565b90505f60035480611c6357611c6261275c565b5b8284099050808414611caa576040517f08c379a0000000000000000000000000000000000000000000000000000000008152600401611ca190613217565b60405180910390fd5b60045f815480929190611cbc90613235565b91905055508860085f3373ffffffffffffffffffffffffffffffffffffffff1673ffffffffffffffffffffffffffffffffffffffff1681526020019081526020015f20600101819055503373ffffffffffffffffffffffffffffffffffffffff167f72100d7b14d227d8b47b91d02fd7b60a2f088ac731aa813940a3533032145b418a604051611d4c9190612157565b60405180910390a2505050505050505050565b60015481565b60025481565b611e038282604051602401611d819291906132be565b6040516020818303038152906040527fb60e72cc000000000000000000000000000000000000000000000000000000007bffffffffffffffffffffffffffffffffffffffffffffffffffffffff19166020820180517bffffffffffffffffffffffffffffffffffffffffffffffffffffffff8381831617835250505050612033565b5050565b611e9d81604051602401611e1b91906132ec565b6040516020818303038152906040527f41304fac000000000000000000000000000000000000000000000000000000007bffffffffffffffffffffffffffffffffffffffffffffffffffffffff19166020820180517bffffffffffffffffffffffffffffffffffffffffffffffffffffffff8381831617835250505050612033565b50565b5f5f6020806020878787604051602001611ebf9695949392919061330c565b60405160208183030381529060405290505f602067ffffffffffffffff811115611eec57611eeb612282565b5b6040519080825280601f01601f191660200182016040528015611f1e5781602001600182028036833780820191505090505b5090505f602080830184516020860160056107d05a03fa905080611f77576040517f08c379a0000000000000000000000000000000000000000000000000000000008152600401611f6e906133c5565b60405180910390fd5b81806020019051810190611f8b91906133f7565b93505050509392505050565b61202f8282604051602401611fad929190613422565b6040516020818303038152906040527f643fd0df000000000000000000000000000000000000000000000000000000007bffffffffffffffffffffffffffffffffffffffffffffffffffffffff19166020820180517bffffffffffffffffffffffffffffffffffffffffffffffffffffffff8381831617835250505050612033565b5050565b61204a8161204261204d61206c565b63ffffffff16565b50565b5f6a636f6e736f6c652e6c6f6790505f5f835160208501845afa505050565b612077819050919050565b61207f613450565b565b5f604051905090565b5f5ffd5b5f5ffd5b5f819050919050565b6120a481612092565b81146120ae575f5ffd5b50565b5f813590506120bf8161209b565b92915050565b5f602082840312156120da576120d961208a565b5b5f6120e7848285016120b1565b91505092915050565b5f73ffffffffffffffffffffffffffffffffffffffff82169050919050565b5f612119826120f0565b9050919050565b6121298161210f565b82525050565b5f6020820190506121425f830184612120565b92915050565b61215181612092565b82525050565b5f60208201905061216a5f830184612148565b92915050565b6121798161210f565b8114612183575f5ffd5b50565b5f8135905061219481612170565b92915050565b5f5f604083850312156121b0576121af61208a565b5b5f6121bd858286016120b1565b92505060206121ce85828601612186565b9150509250929050565b5f602082840312156121ed576121ec61208a565b5b5f6121fa84828501612186565b91505092915050565b5f8115159050919050565b61221781612203565b82525050565b5f60a0820190506122305f83018861220e565b61223d602083018761220e565b61224a6040830186612148565b6122576060830185612148565b6122646080830184612148565b9695505050505050565b5f5ffd5b5f601f19601f8301169050919050565b7f4e487b71000000000000000000000000000000000000000000000000000000005f52604160045260245ffd5b6122b882612272565b810181811067ffffffffffffffff821117156122d7576122d6612282565b5b80604052505050565b5f6122e9612081565b90506122f582826122af565b919050565b5f67ffffffffffffffff82111561231457612313612282565b5b602082029050602081019050919050565b5f5ffd5b5f5ffd5b5f6080828403121561234257612341612329565b5b61234c60806122e0565b90505f61235b848285016120b1565b5f83015250602061236e848285016120b1565b6020830152506040612382848285016120b1565b6040830152506060612396848285016120b1565b60608301525092915050565b5f6123b46123af846122fa565b6122e0565b905080838252602082019050608084028301858111156123d7576123d6612325565b5b835b8181101561240057806123ec888261232d565b8452602084019350506080810190506123d9565b5050509392505050565b5f82601f83011261241e5761241d61226e565b5b813561242e8482602086016123a2565b91505092915050565b5f5f5f5f6080858703121561244f5761244e61208a565b5b5f61245c878288016120b1565b945050602061246d878288016120b1565b935050604061247e878288016120b1565b925050606085013567ffffffffffffffff81111561249f5761249e61208e565b5b6124ab8782880161240a565b91505092959194509250565b5f67ffffffffffffffff8211156124d1576124d0612282565b5b602082029050602081019050919050565b5f6124f46124ef846124b7565b6122e0565b9050808382526020820190506020840283018581111561251757612516612325565b5b835b81811015612540578061252c8882612186565b845260208401935050602081019050612519565b5050509392505050565b5f82601f83011261255e5761255d61226e565b5b813561256e8482602086016124e2565b91505092915050565b5f6020828403121561258c5761258b61208a565b5b5f82013567ffffffffffffffff8111156125a9576125a861208e565b5b6125b58482850161254a565b91505092915050565b5f5f5f5f608085870312156125d6576125d561208a565b5b5f6125e3878288016120b1565b94505060206125f4878288016120b1565b9350506040612605878288016120b1565b9250506060612616878288016120b1565b91505092959194509250565b5f82825260208201905092915050565b7f42756c6c6574696e3a206f6e6c79206f776e65720000000000000000000000005f82015250565b5f612666601483612622565b915061267182612632565b602082019050919050565b5f6020820190508181035f8301526126938161265a565b9050919050565b5f60ff82169050919050565b7f4e487b71000000000000000000000000000000000000000000000000000000005f52601160045260245ffd5b5f6126dd8261269a565b91506126e88361269a565b9250828201905060ff811115612701576127006126a6565b5b92915050565b6127108161269a565b82525050565b5f6020820190506127295f830184612707565b92915050565b7f4e487b71000000000000000000000000000000000000000000000000000000005f52603260045260245ffd5b7f4e487b71000000000000000000000000000000000000000000000000000000005f52601260045260245ffd5b7f696e76616c69642063616e6469646174652061646472657373000000000000005f82015250565b5f6127bd601983612622565b91506127c882612789565b602082019050919050565b5f6020820190508181035f8301526127ea816127b1565b9050919050565b7f63616e646964617465496420616c7265616479207573656400000000000000005f82015250565b5f612825601883612622565b9150612830826127f1565b602082019050919050565b5f6020820190508181035f83015261285281612819565b9050919050565b5f61286382612092565b915061286e83612092565b9250828201905080821115612886576128856126a6565b5b92915050565b5f61289682612092565b91506128a183612092565b92508282039050818111156128b9576128b86126a6565b5b92915050565b5f6128c982612092565b91505f82036128db576128da6126a6565b5b600182039050919050565b7f696e76616c6964206f776e6572000000000000000000000000000000000000005f82015250565b5f61291a600d83612622565b9150612925826128e6565b602082019050919050565b5f6020820190508181035f8301526129478161290e565b9050919050565b7f42756c6c6574696e3a204e6f7420696e20766f74696e672070686173650000005f82015250565b5f612982601d83612622565b915061298d8261294e565b602082019050919050565b5f6020820190508181035f8301526129af81612976565b9050919050565b7f42756c6c6574696e3a204e6f742061207265676973746572656420766f7465725f82015250565b5f6129ea602083612622565b91506129f5826129b6565b602082019050919050565b5f6020820190508181035f830152612a17816129de565b9050919050565b7f42756c6c6574696e3a20416c726561647920766f7465640000000000000000005f82015250565b5f612a52601783612622565b9150612a5d82612a1e565b602082019050919050565b5f6020820190508181035f830152612a7f81612a46565b9050919050565b7f42756c6c6574696e3a20566f746572277320682d76616c7565206e6f7420636f5f8201527f6d70757465640000000000000000000000000000000000000000000000000000602082015250565b5f612ae0602683612622565b9150612aeb82612a86565b604082019050919050565b5f6020820190508181035f830152612b0d81612ad4565b9050919050565b7f42756c6c6574696e3a20496e636f72726563742070726f6f66206c656e6774685f82015250565b5f612b48602083612622565b9150612b5382612b14565b602082019050919050565b5f6020820190508181035f830152612b7581612b3c565b9050919050565b5f819050919050565b612b96612b9182612092565b612b7c565b82525050565b5f612ba78285612b85565b602082019150612bb78284612b85565b6020820191508190509392505050565b5f81519050919050565b5f81905092915050565b8281835e5f83830152505050565b5f612bf382612bc7565b612bfd8185612bd1565b9350612c0d818560208601612bdb565b80840191505092915050565b5f612c248286612be9565b9150612c308285612b85565b602082019150612c408284612b85565b602082019150819050949350505050565b5f612c5b82612092565b9150612c6683612092565b925082612c7657612c7561275c565b5b828206905092915050565b7f42756c6c6574696e3a20496e76616c6964206368616c6c656e67652076616c755f8201527f6520630000000000000000000000000000000000000000000000000000000000602082015250565b5f612cdb602383612622565b9150612ce682612c81565b604082019050919050565b5f6020820190508181035f830152612d0881612ccf565b9050919050565b7f42756c6c6574696e3a2053756d206f662064277320646f6573206e6f74206d615f8201527f7463682063000000000000000000000000000000000000000000000000000000602082015250565b5f612d69602583612622565b9150612d7482612d0f565b604082019050919050565b5f6020820190508181035f830152612d9681612d5d565b9050919050565b7f42756c6c6574696e3a2050726f6f662076616c69646174696f6e206661696c655f8201527f6420666f72206100000000000000000000000000000000000000000000000000602082015250565b5f612df7602783612622565b9150612e0282612d9d565b604082019050919050565b5f6020820190508181035f830152612e2481612deb565b9050919050565b5f612e3582612092565b9150612e4083612092565b9250828202612e4e81612092565b91508282048414831517612e6557612e646126a6565b5b5092915050565b7f42756c6c6574696e3a2050726f6f662076616c69646174696f6e206661696c655f8201527f6420666f72206200000000000000000000000000000000000000000000000000602082015250565b5f612ec6602783612622565b9150612ed182612e6c565b604082019050919050565b5f6020820190508181035f830152612ef381612eba565b9050919050565b5f604082019050612f0d5f830185612148565b612f1a6020830184612148565b9392505050565b7f766f74657220616c7265616479207265676973746572656400000000000000005f82015250565b5f612f55601883612622565b9150612f6082612f21565b602082019050919050565b5f6020820190508181035f830152612f8281612f49565b9050919050565b7f4e6f7420696e207369676e7570207068617365000000000000000000000000005f82015250565b5f612fbd601383612622565b9150612fc882612f89565b602082019050919050565b5f6020820190508181035f830152612fea81612fb1565b9050919050565b5f612ffc8286612b85565b60208201915061300c8285612b85565b60208201915061301c8284612b85565b602082019150819050949350505050565b7f696e76616c6964206e00000000000000000000000000000000000000000000005f82015250565b5f613061600983612622565b915061306c8261302d565b602082019050919050565b5f6020820190508181035f83015261308e81613055565b9050919050565b7f58206e6f7420696e207468652067726f757000000000000000000000000000005f82015250565b5f6130c9601283612622565b91506130d482613095565b602082019050919050565b5f6020820190508181035f8301526130f6816130bd565b9050919050565b7f6756206e6f7420696e207468652067726f7570000000000000000000000000005f82015250565b5f613131601383612622565b915061313c826130fd565b602082019050919050565b5f6020820190508181035f83015261315e81613125565b9050919050565b7f616c7265616479207369676e20757000000000000000000000000000000000005f82015250565b5f613199600f83612622565b91506131a482613165565b602082019050919050565b5f6020820190508181035f8301526131c68161318d565b9050919050565b7f496e76616c69642050726f6f66200000000000000000000000000000000000005f82015250565b5f613201600e83612622565b915061320c826131cd565b602082019050919050565b5f6020820190508181035f83015261322e816131f5565b9050919050565b5f61323f82612092565b91507fffffffffffffffffffffffffffffffffffffffffffffffffffffffffffffffff8203613271576132706126a6565b5b600182019050919050565b5f81519050919050565b5f6132908261327c565b61329a8185612622565b93506132aa818560208601612bdb565b6132b381612272565b840191505092915050565b5f6040820190508181035f8301526132d68185613286565b90506132e56020830184612148565b9392505050565b5f6020820190508181035f8301526133048184613286565b905092915050565b5f6133178289612b85565b6020820191506133278288612b85565b6020820191506133378287612b85565b6020820191506133478286612b85565b6020820191506133578285612b85565b6020820191506133678284612b85565b602082019150819050979650505050505050565b7f6d6f64657870206661696c6564000000000000000000000000000000000000005f82015250565b5f6133af600d83612622565b91506133ba8261337b565b602082019050919050565b5f6020820190508181035f8301526133dc816133a3565b9050919050565b5f815190506133f18161209b565b92915050565b5f6020828403121561340c5761340b61208a565b5b5f613419848285016133e3565b91505092915050565b5f6040820190506134355f830185612148565b81810360208301526134478184613286565b90509392505050565b7f4e487b71000000000000000000000000000000000000000000000000000000005f52605160045260245ffdfea264697066735822122074bf4293f71716d01cee2d33821b5fe6a0ad9039a9f50e770dc988fa72f56ed764736f6c634300081e0033","linkReferences":{}},"methodIdentifiers":{"N()":"c9e525df","accum()":"435db5ca","base()":"5001f3b5","candidateCount()":"a9a981a3","candidates(uint256)":"3477ee2e","changeOwner(address)":"a6f9dae1","computeH()":"9741e0ba","g()":"e2179b8e","nextState()":"14007c6d","owner()":"8da5cb5b","p()":"9ae8886a","q()":"fd3ab282","registerCandidate(uint256,address)":"4830a136","registerVoters(address[])":"d55ec9c1","tally()":"410673e5","vote(uint256,uint256,uint256,(uint256,uint256,uint256,uint256)[])":"c2f0e415","voterList(uint256)":"50e2e8af","voterSignup(uint256,uint256,uint256,uint256)":"de302a57","voters(address)":"a3ec138d"},"id":17}