{"abi":[{"type":"constructor","inputs":[{"name":"_g","type":"uint256","internalType":"uint256"},{"name":"_p","type":"uint256","internalType":"uint256"},{"name":"_q","type":"uint256","internalType":"uint256"}],"stateMutability":"nonpayable"},{"type":"function","name":"candidateCount","inputs":[],"outputs":[{"name":"","type":"uint256","internalType":"uint256"}],"stateMutability":"view"},{"type":"function","name":"candidates","inputs":[{"name":"","type":"uint256","internalType":"uint256"}],"outputs":[{"name":"","type":"address","internalType":"address"}],"stateMutability":"view"},{"type":"function","name":"changeOwner","inputs":[{"name":"newOwner","type":"address","internalType":"address"}],"outputs":[],"stateMutability":"nonpayable"},{"type":"function","name":"computeH","inputs":[],"outputs":[],"stateMutability":"nonpayable"},{"type":"function","name":"g","inputs":[],"outputs":[{"name":"","type":"uint256","internalType":"uint256"}],"stateMutability":"view"},{"type":"function","name":"nextState","inputs":[],"outputs":[],"stateMutability":"nonpayable"},{"type":"function","name":"owner","inputs":[],"outputs":[{"name":"","type":"address","internalType":"address"}],"stateMutability":"view"},{"type":"function","name":"p","inputs":[],"outputs":[{"name":"","type":"uint256","internalType":"uint256"}],"stateMutability":"view"},{"type":"function","name":"q","inputs":[],"outputs":[{"name":"","type":"uint256","internalType":"uint256"}],"stateMutability":"view"},{"type":"function","name":"registerCandidate","inputs":[{"name":"candidateId","type":"uint256","internalType":"uint256"},{"name":"candidateEOA","type":"address","internalType":"address"}],"outputs":[],"stateMutability":"nonpayable"},{"type":"function","name":"registerVoters","inputs":[{"name":"accounts","type":"address[]","internalType":"address[]"}],"outputs":[],"stateMutability":"nonpayable"},{"type":"function","name":"voterList","inputs":[{"name":"","type":"uint256","internalType":"uint256"}],"outputs":[{"name":"","type":"address","internalType":"address"}],"stateMutability":"view"},{"type":"function","name":"voterSignup","inputs":[{"name":"X","type":"uint256","internalType":"uint256"},{"name":"gV","type":"uint256","internalType":"uint256"},{"name":"phi","type":"uint256","internalType":"uint256"},{"name":"n","type":"uint256","internalType":"uint256"}],"outputs":[],"stateMutability":"nonpayable"},{"type":"function","name":"voters","inputs":[{"name":"","type":"address","internalType":"address"}],"outputs":[{"name":"registered","type":"bool","internalType":"bool"},{"name":"voted","type":"bool","internalType":"bool"},{"name":"X","type":"uint256","internalType":"uint256"},{"name":"h","type":"uint256","internalType":"uint256"}],"stateMutability":"view"},{"type":"event","name":"CandidateRegistered","inputs":[{"name":"candidateId","type":"uint256","indexed":true,"internalType":"uint256"},{"name":"candidateEOA","type":"address","indexed":true,"internalType":"address"}],"anonymous":false},{"type":"event","name":"OwnerChanged","inputs":[{"name":"oldOwner","type":"address","indexed":true,"internalType":"address"},{"name":"newOwner","type":"address","indexed":true,"internalType":"address"}],"anonymous":false},{"type":"event","name":"Voted","inputs":[{"name":"eoaHash","type":"bytes32","indexed":true,"internalType":"bytes32"},{"name":"candidateId","type":"uint256","indexed":true,"internalType":"uint256"},{"name":"X","type":"uint256","indexed":false,"internalType":"uint256"}],"anonymous":false},{"type":"event","name":"VoterRegistered","inputs":[{"name":"eoca","type":"address","indexed":true,"internalType":"address"}],"anonymous":false},{"type":"event","name":"stateChange","inputs":[{"name":"s","type":"uint8","indexed":false,"internalType":"uint8"}],"anonymous":false},{"type":"event","name":"voterSignupEvent","inputs":[{"name":"eoa","type":"address","indexed":true,"internalType":"address"},{"name":"X","type":"uint256","indexed":false,"internalType":"uint256"}],"anonymous":false}],"bytecode":{"object":"0x608060405234801561000f575f5ffd5b506040516125ed3803806125ed83398181016040528101906100319190610197565b60028111610074576040517f08c379a000000000000000000000000000000000000000000000000000000000815260040161006b90610241565b60405180910390fd5b8181106100b6576040517f08c379a00000000000000000000000000000000000000000000000000000000081526004016100ad906102a9565b60405180910390fd5b6001831180156100c557508083105b610104576040517f08c379a00000000000000000000000000000000000000000000000000000000081526004016100fb90610311565b60405180910390fd5b335f5f6101000a81548173ffffffffffffffffffffffffffffffffffffffff021916908373ffffffffffffffffffffffffffffffffffffffff16021790555082600181905550806002819055508160038190555050505061032f565b5f5ffd5b5f819050919050565b61017681610164565b8114610180575f5ffd5b50565b5f815190506101918161016d565b92915050565b5f5f5f606084860312156101ae576101ad610160565b5b5f6101bb86828701610183565b93505060206101cc86828701610183565b92505060406101dd86828701610183565b9150509250925092565b5f82825260208201905092915050565b7f71206d757374206265203e2032000000000000000000000000000000000000005f82015250565b5f61022b600d836101e7565b9150610236826101f7565b602082019050919050565b5f6020820190508181035f8301526102588161021f565b9050919050565b7f71206d757374206265203c2070000000000000000000000000000000000000005f82015250565b5f610293600d836101e7565b915061029e8261025f565b602082019050919050565b5f6020820190508181035f8301526102c081610287565b9050919050565b7f67206d7573742062652032203c3d2067203c20710000000000000000000000005f82015250565b5f6102fb6014836101e7565b9150610306826102c7565b602082019050919050565b5f6020820190508181035f830152610328816102ef565b9050919050565b6122b18061033c5f395ff3fe608060405234801561000f575f5ffd5b50600436106100e8575f3560e01c8063a3ec138d1161008a578063d55ec9c111610064578063d55ec9c114610225578063de302a5714610241578063e2179b8e1461025d578063fd3ab2821461027b576100e8565b8063a3ec138d146101b8578063a6f9dae1146101eb578063a9a981a314610207576100e8565b806350e2e8af116100c657806350e2e8af146101425780638da5cb5b146101725780639741e0ba146101905780639ae8886a1461019a576100e8565b806314007c6d146100ec5780633477ee2e146100f65780634830a13614610126575b5f5ffd5b6100f4610299565b005b610110600480360381019061010b91906116e8565b610417565b60405161011d9190611752565b60405180910390f35b610140600480360381019061013b9190611795565b610447565b005b61015c600480360381019061015791906116e8565b610691565b6040516101699190611752565b60405180910390f35b61017a6106cc565b6040516101879190611752565b60405180910390f35b6101986106f0565b005b6101a2610cb8565b6040516101af91906117e2565b60405180910390f35b6101d260048036038101906101cd91906117fb565b610cbe565b6040516101e29493929190611840565b60405180910390f35b610205600480360381019061020091906117fb565b610d02565b005b61020f610ebf565b60405161021c91906117e2565b60405180910390f35b61023f600480360381019061023a91906119d3565b610ec5565b005b61025b60048036038101906102569190611a1a565b611176565b005b61026561141e565b60405161027291906117e2565b60405180910390f35b610283611424565b60405161029091906117e2565b60405180910390f35b5f5f9054906101000a900473ffffffffffffffffffffffffffffffffffffffff1673ffffffffffffffffffffffffffffffffffffffff163373ffffffffffffffffffffffffffffffffffffffff1614610327576040517f08c379a000000000000000000000000000000000000000000000000000000000815260040161031e90611ad8565b60405180910390fd5b60045f81819054906101000a900460ff168092919061034590611b2f565b91906101000a81548160ff021916908360ff160217905550506103ae6040518060400160405280600981526020017f4e6577205374617465000000000000000000000000000000000000000000000081525060045f9054906101000a900460ff1660ff1661142a565b600260045f9054906101000a900460ff1660ff16036103d0576103cf6106f0565b5b7f45f2fef6c61e25b553da580bc9f711ea1c431c244c2679f0abefbd95446b0dfb60045f9054906101000a900460ff1660405161040d9190611b66565b60405180910390a1565b6007602052805f5260405f205f915054906101000a900473ffffffffffffffffffffffffffffffffffffffff1681565b5f5f9054906101000a900473ffffffffffffffffffffffffffffffffffffffff1673ffffffffffffffffffffffffffffffffffffffff163373ffffffffffffffffffffffffffffffffffffffff16146104d5576040517f08c379a00000000000000000000000000000000000000000000000000000000081526004016104cc90611ad8565b60405180910390fd5b5f73ffffffffffffffffffffffffffffffffffffffff168173ffffffffffffffffffffffffffffffffffffffff1603610543576040517f08c379a000000000000000000000000000000000000000000000000000000000815260040161053a90611bc9565b60405180910390fd5b5f73ffffffffffffffffffffffffffffffffffffffff1660075f8481526020019081526020015f205f9054906101000a900473ffffffffffffffffffffffffffffffffffffffff1673ffffffffffffffffffffffffffffffffffffffff16146105e1576040517f08c379a00000000000000000000000000000000000000000000000000000000081526004016105d890611c31565b60405180910390fd5b8060075f8481526020019081526020015f205f6101000a81548173ffffffffffffffffffffffffffffffffffffffff021916908373ffffffffffffffffffffffffffffffffffffffff160217905550600160085f8282546106429190611c4f565b925050819055508073ffffffffffffffffffffffffffffffffffffffff16827ff1ea2573ddf2ce6e931102024c2b67e7d23a5e33614f19c27f5a5aaf1d59c08860405160405180910390a35050565b600681815481106106a0575f80fd5b905f5260205f20015f915054906101000a900473ffffffffffffffffffffffffffffffffffffffff1681565b5f5f9054906101000a900473ffffffffffffffffffffffffffffffffffffffff1681565b61072e6040518060400160405280601081526020017f52756e6e696e6720436f6d7075746548000000000000000000000000000000008152506114c6565b5f60068054905090505f81036107445750610cb6565b5f8167ffffffffffffffff81111561075f5761075e611897565b5b60405190808252806020026020018201604052801561078d5781602001602082028036833780820191505090505b5090505f8267ffffffffffffffff8111156107ab576107aa611897565b5b6040519080825280602002602001820160405280156107d95781602001602082028036833780820191505090505b5090505f600190505f5f90505b8481101561092f578184828151811061080257610801611c82565b5b6020026020010181815250505f60055f6006848154811061082657610825611c82565b5b905f5260205f20015f9054906101000a900473ffffffffffffffffffffffffffffffffffffffff1673ffffffffffffffffffffffffffffffffffffffff1673ffffffffffffffffffffffffffffffffffffffff1681526020019081526020015f20600101541461092257600354806108a1576108a0611caf565b5b60055f600684815481106108b8576108b7611c82565b5b905f5260205f20015f9054906101000a900473ffffffffffffffffffffffffffffffffffffffff1673ffffffffffffffffffffffffffffffffffffffff1673ffffffffffffffffffffffffffffffffffffffff1681526020019081526020015f2060010154830991505b80806001019150506107e6565b50600190505f8490505b5f811115610ac65781836001836109509190611cdc565b8151811061096157610960611c82565b5b6020026020010181815250505f60055f60066001856109809190611cdc565b8154811061099157610990611c82565b5b905f5260205f20015f9054906101000a900473ffffffffffffffffffffffffffffffffffffffff1673ffffffffffffffffffffffffffffffffffffffff1673ffffffffffffffffffffffffffffffffffffffff1681526020019081526020015f206001015414610ab35760035480610a0c57610a0b611caf565b5b610aae60055f6006600186610a219190611cdc565b81548110610a3257610a31611c82565b5b905f5260205f20015f9054906101000a900473ffffffffffffffffffffffffffffffffffffffff1673ffffffffffffffffffffffffffffffffffffffff1673ffffffffffffffffffffffffffffffffffffffff1681526020019081526020015f20600101546002600354610aa69190611cdc565b60035461155f565b830991505b8080610abe90611d0f565b915050610939565b505f5f90505b84811015610cb0575f60055f60068481548110610aec57610aeb611c82565b5b905f5260205f20015f9054906101000a900473ffffffffffffffffffffffffffffffffffffffff1673ffffffffffffffffffffffffffffffffffffffff1673ffffffffffffffffffffffffffffffffffffffff1681526020019081526020015f206001015414610c225760035480610b6757610b66611caf565b5b838281518110610b7a57610b79611c82565b5b6020026020010151858381518110610b9557610b94611c82565b5b60200260200101510960055f60068481548110610bb557610bb4611c82565b5b905f5260205f20015f9054906101000a900473ffffffffffffffffffffffffffffffffffffffff1673ffffffffffffffffffffffffffffffffffffffff1673ffffffffffffffffffffffffffffffffffffffff1681526020019081526020015f2060020181905550610ca3565b5f60055f60068481548110610c3a57610c39611c82565b5b905f5260205f20015f9054906101000a900473ffffffffffffffffffffffffffffffffffffffff1673ffffffffffffffffffffffffffffffffffffffff1673ffffffffffffffffffffffffffffffffffffffff1681526020019081526020015f20600201819055505b8080600101915050610acc565b50505050505b565b60035481565b6005602052805f5260405f205f91509050805f015f9054906101000a900460ff1690805f0160019054906101000a900460ff16908060010154908060020154905084565b5f5f9054906101000a900473ffffffffffffffffffffffffffffffffffffffff1673ffffffffffffffffffffffffffffffffffffffff163373ffffffffffffffffffffffffffffffffffffffff1614610d90576040517f08c379a0000000000000000000000000000000000000000000000000000000008152600401610d8790611ad8565b60405180910390fd5b5f73ffffffffffffffffffffffffffffffffffffffff168173ffffffffffffffffffffffffffffffffffffffff1603610dfe576040517f08c379a0000000000000000000000000000000000000000000000000000000008152600401610df590611d80565b60405180910390fd5b5f5f5f9054906101000a900473ffffffffffffffffffffffffffffffffffffffff169050815f5f6101000a81548173ffffffffffffffffffffffffffffffffffffffff021916908373ffffffffffffffffffffffffffffffffffffffff1602179055508173ffffffffffffffffffffffffffffffffffffffff168173ffffffffffffffffffffffffffffffffffffffff167fb532073b38c83145e3e5135377a08bf9aab55bc0fd7c1179cd4fb995d2a5159c60405160405180910390a35050565b60085481565b5f5f9054906101000a900473ffffffffffffffffffffffffffffffffffffffff1673ffffffffffffffffffffffffffffffffffffffff163373ffffffffffffffffffffffffffffffffffffffff1614610f53576040517f08c379a0000000000000000000000000000000000000000000000000000000008152600401610f4a90611ad8565b60405180910390fd5b5f5f90505b8151811015611172575f828281518110610f7557610f74611c82565b5b6020026020010151905060055f8273ffffffffffffffffffffffffffffffffffffffff1673ffffffffffffffffffffffffffffffffffffffff1681526020019081526020015f205f015f9054906101000a900460ff161561100b576040517f08c379a000000000000000000000000000000000000000000000000000000000815260040161100290611de8565b60405180910390fd5b60405180608001604052806001151581526020015f151581526020015f81526020015f81525060055f8373ffffffffffffffffffffffffffffffffffffffff1673ffffffffffffffffffffffffffffffffffffffff1681526020019081526020015f205f820151815f015f6101000a81548160ff0219169083151502179055506020820151815f0160016101000a81548160ff0219169083151502179055506040820151816001015560608201518160020155905050600681908060018154018082558091505060019003905f5260205f20015f9091909190916101000a81548173ffffffffffffffffffffffffffffffffffffffff021916908373ffffffffffffffffffffffffffffffffffffffff1602179055508073ffffffffffffffffffffffffffffffffffffffff167fb6be2187d059cc2a55fe29e0e503b566e1e0f8c8780096e185429350acffd3dd60405160405180910390a2508080600101915050610f58565b5050565b5f600254600154868660405160200161119193929190611e26565b604051602081830303815290604052805190602001205f1c6111b39190611e62565b90508082146111f7576040517f08c379a00000000000000000000000000000000000000000000000000000000081526004016111ee90611edc565b60405180910390fd5b600354851061123b576040517f08c379a000000000000000000000000000000000000000000000000000000000815260040161123290611f44565b60405180910390fd5b600354841061127f576040517f08c379a000000000000000000000000000000000000000000000000000000000815260040161127690611fac565b60405180910390fd5b5f60055f3373ffffffffffffffffffffffffffffffffffffffff1673ffffffffffffffffffffffffffffffffffffffff1681526020019081526020015f206001015414611301576040517f08c379a00000000000000000000000000000000000000000000000000000000081526004016112f890612014565b60405180910390fd5b5f8490505f6113156001548660035461155f565b90505f611325888660035461155f565b90505f6003548061133957611338611caf565b5b8284099050808414611380576040517f08c379a00000000000000000000000000000000000000000000000000000000081526004016113779061207c565b60405180910390fd5b8860055f3373ffffffffffffffffffffffffffffffffffffffff1673ffffffffffffffffffffffffffffffffffffffff1681526020019081526020015f20600101819055503373ffffffffffffffffffffffffffffffffffffffff167f72100d7b14d227d8b47b91d02fd7b60a2f088ac731aa813940a3533032145b418a60405161140b91906117e2565b60405180910390a2505050505050505050565b60015481565b60025481565b6114c282826040516024016114409291906120ea565b6040516020818303038152906040527fb60e72cc000000000000000000000000000000000000000000000000000000007bffffffffffffffffffffffffffffffffffffffffffffffffffffffff19166020820180517bffffffffffffffffffffffffffffffffffffffffffffffffffffffff8381831617835250505050611656565b5050565b61155c816040516024016114da9190612118565b6040516020818303038152906040527f41304fac000000000000000000000000000000000000000000000000000000007bffffffffffffffffffffffffffffffffffffffffffffffffffffffff19166020820180517bffffffffffffffffffffffffffffffffffffffffffffffffffffffff8381831617835250505050611656565b50565b5f5f602080602087878760405160200161157e96959493929190612138565b60405160208183030381529060405290505f602067ffffffffffffffff8111156115ab576115aa611897565b5b6040519080825280601f01601f1916602001820160405280156115dd5781602001600182028036833780820191505090505b5090505f602080830184516020860160056107d05a03fa905080611636576040517f08c379a000000000000000000000000000000000000000000000000000000000815260040161162d906121f1565b60405180910390fd5b8180602001905181019061164a9190612223565b93505050509392505050565b61166d8161166561167061168f565b63ffffffff16565b50565b5f6a636f6e736f6c652e6c6f6790505f5f835160208501845afa505050565b61169a819050919050565b6116a261224e565b565b5f604051905090565b5f5ffd5b5f5ffd5b5f819050919050565b6116c7816116b5565b81146116d1575f5ffd5b50565b5f813590506116e2816116be565b92915050565b5f602082840312156116fd576116fc6116ad565b5b5f61170a848285016116d4565b91505092915050565b5f73ffffffffffffffffffffffffffffffffffffffff82169050919050565b5f61173c82611713565b9050919050565b61174c81611732565b82525050565b5f6020820190506117655f830184611743565b92915050565b61177481611732565b811461177e575f5ffd5b50565b5f8135905061178f8161176b565b92915050565b5f5f604083850312156117ab576117aa6116ad565b5b5f6117b8858286016116d4565b92505060206117c985828601611781565b9150509250929050565b6117dc816116b5565b82525050565b5f6020820190506117f55f8301846117d3565b92915050565b5f602082840312156118105761180f6116ad565b5b5f61181d84828501611781565b91505092915050565b5f8115159050919050565b61183a81611826565b82525050565b5f6080820190506118535f830187611831565b6118606020830186611831565b61186d60408301856117d3565b61187a60608301846117d3565b95945050505050565b5f5ffd5b5f601f19601f8301169050919050565b7f4e487b71000000000000000000000000000000000000000000000000000000005f52604160045260245ffd5b6118cd82611887565b810181811067ffffffffffffffff821117156118ec576118eb611897565b5b80604052505050565b5f6118fe6116a4565b905061190a82826118c4565b919050565b5f67ffffffffffffffff82111561192957611928611897565b5b602082029050602081019050919050565b5f5ffd5b5f61195061194b8461190f565b6118f5565b905080838252602082019050602084028301858111156119735761197261193a565b5b835b8181101561199c57806119888882611781565b845260208401935050602081019050611975565b5050509392505050565b5f82601f8301126119ba576119b9611883565b5b81356119ca84826020860161193e565b91505092915050565b5f602082840312156119e8576119e76116ad565b5b5f82013567ffffffffffffffff811115611a0557611a046116b1565b5b611a11848285016119a6565b91505092915050565b5f5f5f5f60808587031215611a3257611a316116ad565b5b5f611a3f878288016116d4565b9450506020611a50878288016116d4565b9350506040611a61878288016116d4565b9250506060611a72878288016116d4565b91505092959194509250565b5f82825260208201905092915050565b7f42756c6c6574696e3a206f6e6c79206f776e65720000000000000000000000005f82015250565b5f611ac2601483611a7e565b9150611acd82611a8e565b602082019050919050565b5f6020820190508181035f830152611aef81611ab6565b9050919050565b7f4e487b71000000000000000000000000000000000000000000000000000000005f52601160045260245ffd5b5f60ff82169050919050565b5f611b3982611b23565b915060ff8203611b4c57611b4b611af6565b5b600182019050919050565b611b6081611b23565b82525050565b5f602082019050611b795f830184611b57565b92915050565b7f696e76616c69642063616e6469646174652061646472657373000000000000005f82015250565b5f611bb3601983611a7e565b9150611bbe82611b7f565b602082019050919050565b5f6020820190508181035f830152611be081611ba7565b9050919050565b7f63616e646964617465496420616c7265616479207573656400000000000000005f82015250565b5f611c1b601883611a7e565b9150611c2682611be7565b602082019050919050565b5f6020820190508181035f830152611c4881611c0f565b9050919050565b5f611c59826116b5565b9150611c64836116b5565b9250828201905080821115611c7c57611c7b611af6565b5b92915050565b7f4e487b71000000000000000000000000000000000000000000000000000000005f52603260045260245ffd5b7f4e487b71000000000000000000000000000000000000000000000000000000005f52601260045260245ffd5b5f611ce6826116b5565b9150611cf1836116b5565b9250828203905081811115611d0957611d08611af6565b5b92915050565b5f611d19826116b5565b91505f8203611d2b57611d2a611af6565b5b600182039050919050565b7f696e76616c6964206f776e6572000000000000000000000000000000000000005f82015250565b5f611d6a600d83611a7e565b9150611d7582611d36565b602082019050919050565b5f6020820190508181035f830152611d9781611d5e565b9050919050565b7f766f74657220616c7265616479207265676973746572656400000000000000005f82015250565b5f611dd2601883611a7e565b9150611ddd82611d9e565b602082019050919050565b5f6020820190508181035f830152611dff81611dc6565b9050919050565b5f819050919050565b611e20611e1b826116b5565b611e06565b82525050565b5f611e318286611e0f565b602082019150611e418285611e0f565b602082019150611e518284611e0f565b602082019150819050949350505050565b5f611e6c826116b5565b9150611e77836116b5565b925082611e8757611e86611caf565b5b828206905092915050565b7f696e76616c6964206e00000000000000000000000000000000000000000000005f82015250565b5f611ec6600983611a7e565b9150611ed182611e92565b602082019050919050565b5f6020820190508181035f830152611ef381611eba565b9050919050565b7f58206e6f7420696e207468652067726f757000000000000000000000000000005f82015250565b5f611f2e601283611a7e565b9150611f3982611efa565b602082019050919050565b5f6020820190508181035f830152611f5b81611f22565b9050919050565b7f6756206e6f7420696e207468652067726f7570000000000000000000000000005f82015250565b5f611f96601383611a7e565b9150611fa182611f62565b602082019050919050565b5f6020820190508181035f830152611fc381611f8a565b9050919050565b7f616c7265616479207369676e20757000000000000000000000000000000000005f82015250565b5f611ffe600f83611a7e565b915061200982611fca565b602082019050919050565b5f6020820190508181035f83015261202b81611ff2565b9050919050565b7f496e76616c69642050726f6f66200000000000000000000000000000000000005f82015250565b5f612066600e83611a7e565b915061207182612032565b602082019050919050565b5f6020820190508181035f8301526120938161205a565b9050919050565b5f81519050919050565b8281835e5f83830152505050565b5f6120bc8261209a565b6120c68185611a7e565b93506120d68185602086016120a4565b6120df81611887565b840191505092915050565b5f6040820190508181035f83015261210281856120b2565b905061211160208301846117d3565b9392505050565b5f6020820190508181035f83015261213081846120b2565b905092915050565b5f6121438289611e0f565b6020820191506121538288611e0f565b6020820191506121638287611e0f565b6020820191506121738286611e0f565b6020820191506121838285611e0f565b6020820191506121938284611e0f565b602082019150819050979650505050505050565b7f6d6f64657870206661696c6564000000000000000000000000000000000000005f82015250565b5f6121db600d83611a7e565b91506121e6826121a7565b602082019050919050565b5f6020820190508181035f830152612208816121cf565b9050919050565b5f8151905061221d816116be565b92915050565b5f60208284031215612238576122376116ad565b5b5f6122458482850161220f565b91505092915050565b7f4e487b71000000000000000000000000000000000000000000000000000000005f52605160045260245ffdfea2646970667358221220a07a6dd026cba07948b97c4d48f000813ba4fe707547f64664a155b8e740110864736f6c634300081e0033","linkReferences":{}},"methodIdentifiers":{"candidateCount()":"a9a981a3","candidates(uint256)":"3477ee2e","changeOwner(address)":"a6f9dae1","computeH()":"9741e0ba","g()":"e2179b8e","nextState()":"14007c6d","owner()":"8da5cb5b","p()":"9ae8886a","q()":"fd3ab282","registerCandidate(uint256,address)":"4830a136","registerVoters(address[])":"d55ec9c1","voterList(uint256)":"50e2e8af","voterSignup(uint256,uint256,uint256,uint256)":"de302a57","voters(address)":"a3ec138d"},"id":17}