{"abi":[{"type":"constructor","inputs":[{"name":"_g","type":"uint256","internalType":"uint256"},{"name":"_q","type":"uint256","internalType":"uint256"}],"stateMutability":"nonpayable"},{"type":"function","name":"candidateCount","inputs":[],"outputs":[{"name":"","type":"uint256","internalType":"uint256"}],"stateMutability":"view"},{"type":"function","name":"candidates","inputs":[{"name":"","type":"uint256","internalType":"uint256"}],"outputs":[{"name":"","type":"address","internalType":"address"}],"stateMutability":"view"},{"type":"function","name":"changeOwner","inputs":[{"name":"newOwner","type":"address","internalType":"address"}],"outputs":[],"stateMutability":"nonpayable"},{"type":"function","name":"g","inputs":[],"outputs":[{"name":"","type":"uint256","internalType":"uint256"}],"stateMutability":"view"},{"type":"function","name":"nextState","inputs":[],"outputs":[],"stateMutability":"nonpayable"},{"type":"function","name":"owner","inputs":[],"outputs":[{"name":"","type":"address","internalType":"address"}],"stateMutability":"view"},{"type":"function","name":"q","inputs":[],"outputs":[{"name":"","type":"uint256","internalType":"uint256"}],"stateMutability":"view"},{"type":"function","name":"registerCandidate","inputs":[{"name":"candidateId","type":"uint256","internalType":"uint256"},{"name":"candidateEOA","type":"address","internalType":"address"}],"outputs":[],"stateMutability":"nonpayable"},{"type":"function","name":"registerVoters","inputs":[{"name":"accounts","type":"address[]","internalType":"address[]"}],"outputs":[],"stateMutability":"nonpayable"},{"type":"function","name":"voterList","inputs":[{"name":"","type":"uint256","internalType":"uint256"}],"outputs":[{"name":"","type":"address","internalType":"address"}],"stateMutability":"view"},{"type":"function","name":"voterSignup","inputs":[{"name":"X","type":"uint256","internalType":"uint256"},{"name":"gV","type":"uint256","internalType":"uint256"},{"name":"phi","type":"uint256","internalType":"uint256"},{"name":"n","type":"bytes32","internalType":"bytes32"}],"outputs":[],"stateMutability":"nonpayable"},{"type":"function","name":"voters","inputs":[{"name":"","type":"address","internalType":"address"}],"outputs":[{"name":"registered","type":"bool","internalType":"bool"},{"name":"voted","type":"bool","internalType":"bool"},{"name":"X","type":"uint256","internalType":"uint256"},{"name":"h","type":"uint256","internalType":"uint256"}],"stateMutability":"view"},{"type":"event","name":"CandidateRegistered","inputs":[{"name":"candidateId","type":"uint256","indexed":true,"internalType":"uint256"},{"name":"candidateEOA","type":"address","indexed":true,"internalType":"address"}],"anonymous":false},{"type":"event","name":"OwnerChanged","inputs":[{"name":"oldOwner","type":"address","indexed":true,"internalType":"address"},{"name":"newOwner","type":"address","indexed":true,"internalType":"address"}],"anonymous":false},{"type":"event","name":"Voted","inputs":[{"name":"eoaHash","type":"bytes32","indexed":true,"internalType":"bytes32"},{"name":"candidateId","type":"uint256","indexed":true,"internalType":"uint256"},{"name":"X","type":"uint256","indexed":false,"internalType":"uint256"}],"anonymous":false},{"type":"event","name":"VoterRegistered","inputs":[{"name":"eoca","type":"address","indexed":true,"internalType":"address"}],"anonymous":false},{"type":"event","name":"stateChange","inputs":[{"name":"s","type":"uint8","indexed":false,"internalType":"uint8"}],"anonymous":false},{"type":"event","name":"voterSignupEvent","inputs":[{"name":"eoa","type":"address","indexed":true,"internalType":"address"},{"name":"X","type":"uint256","indexed":false,"internalType":"uint256"}],"anonymous":false}],"bytecode":{"object":"0x608060405234801561000f575f5ffd5b506040516120593803806120598339818101604052810190610031919061014d565b60028111610074576040517f08c379a000000000000000000000000000000000000000000000000000000000815260040161006b906101e5565b60405180910390fd5b60018211801561008357508082105b6100c2576040517f08c379a00000000000000000000000000000000000000000000000000000000081526004016100b99061024d565b60405180910390fd5b335f5f6101000a81548173ffffffffffffffffffffffffffffffffffffffff021916908373ffffffffffffffffffffffffffffffffffffffff1602179055508160018190555080600281905550505061026b565b5f5ffd5b5f819050919050565b61012c8161011a565b8114610136575f5ffd5b50565b5f8151905061014781610123565b92915050565b5f5f6040838503121561016357610162610116565b5b5f61017085828601610139565b925050602061018185828601610139565b9150509250929050565b5f82825260208201905092915050565b7f71206d757374206265203e2032000000000000000000000000000000000000005f82015250565b5f6101cf600d8361018b565b91506101da8261019b565b602082019050919050565b5f6020820190508181035f8301526101fc816101c3565b9050919050565b7f67206d7573742062652032203c3d2067203c20710000000000000000000000005f82015250565b5f61023760148361018b565b915061024282610203565b602082019050919050565b5f6020820190508181035f8301526102648161022b565b9050919050565b611de1806102785f395ff3fe608060405234801561000f575f5ffd5b50600436106100b2575f3560e01c8063a3ec138d1161006f578063a3ec138d14610176578063a6f9dae1146101a9578063a9a981a3146101c5578063d55ec9c1146101e3578063e2179b8e146101ff578063fd3ab2821461021d576100b2565b806314007c6d146100b65780633477ee2e146100c05780634830a136146100f057806350e2e8af1461010c5780638da5cb5b1461013c578063993e6cf41461015a575b5f5ffd5b6100be61023b565b005b6100da60048036038101906100d5919061126f565b610369565b6040516100e791906112d9565b60405180910390f35b61010a6004803603810190610105919061131c565b610399565b005b6101266004803603810190610121919061126f565b6105e3565b60405161013391906112d9565b60405180910390f35b61014461061e565b60405161015191906112d9565b60405180910390f35b610174600480360381019061016f919061138d565b610642565b005b610190600480360381019061018b91906113f1565b6108d3565b6040516101a09493929190611445565b60405180910390f35b6101c360048036038101906101be91906113f1565b610917565b005b6101cd610ad4565b6040516101da9190611488565b60405180910390f35b6101fd60048036038101906101f891906115f1565b610ada565b005b610207610d8b565b6040516102149190611488565b60405180910390f35b610225610d91565b6040516102329190611488565b60405180910390f35b5f5f9054906101000a900473ffffffffffffffffffffffffffffffffffffffff1673ffffffffffffffffffffffffffffffffffffffff163373ffffffffffffffffffffffffffffffffffffffff16146102c9576040517f08c379a00000000000000000000000000000000000000000000000000000000081526004016102c090611692565b60405180910390fd5b60035f81819054906101000a900460ff16809291906102e7906116e9565b91906101000a81548160ff021916908360ff16021790555050600260035f9054906101000a900460ff1660ff160361032257610321610d97565b5b7f45f2fef6c61e25b553da580bc9f711ea1c431c244c2679f0abefbd95446b0dfb60035f9054906101000a900460ff1660405161035f9190611720565b60405180910390a1565b6006602052805f5260405f205f915054906101000a900473ffffffffffffffffffffffffffffffffffffffff1681565b5f5f9054906101000a900473ffffffffffffffffffffffffffffffffffffffff1673ffffffffffffffffffffffffffffffffffffffff163373ffffffffffffffffffffffffffffffffffffffff1614610427576040517f08c379a000000000000000000000000000000000000000000000000000000000815260040161041e90611692565b60405180910390fd5b5f73ffffffffffffffffffffffffffffffffffffffff168173ffffffffffffffffffffffffffffffffffffffff1603610495576040517f08c379a000000000000000000000000000000000000000000000000000000000815260040161048c90611783565b60405180910390fd5b5f73ffffffffffffffffffffffffffffffffffffffff1660065f8481526020019081526020015f205f9054906101000a900473ffffffffffffffffffffffffffffffffffffffff1673ffffffffffffffffffffffffffffffffffffffff1614610533576040517f08c379a000000000000000000000000000000000000000000000000000000000815260040161052a906117eb565b60405180910390fd5b8060065f8481526020019081526020015f205f6101000a81548173ffffffffffffffffffffffffffffffffffffffff021916908373ffffffffffffffffffffffffffffffffffffffff160217905550600160075f8282546105949190611809565b925050819055508073ffffffffffffffffffffffffffffffffffffffff16827ff1ea2573ddf2ce6e931102024c2b67e7d23a5e33614f19c27f5a5aaf1d59c08860405160405180910390a35050565b600581815481106105f2575f80fd5b905f5260205f20015f915054906101000a900473ffffffffffffffffffffffffffffffffffffffff1681565b5f5f9054906101000a900473ffffffffffffffffffffffffffffffffffffffff1681565b60015484846040516020016106599392919061185c565b6040516020818303038152906040528051906020012081146106b0576040517f08c379a00000000000000000000000000000000000000000000000000000000081526004016106a7906118e2565b60405180910390fd5b60025484106106f4576040517f08c379a00000000000000000000000000000000000000000000000000000000081526004016106eb9061194a565b60405180910390fd5b6002548310610738576040517f08c379a000000000000000000000000000000000000000000000000000000000815260040161072f906119b2565b60405180910390fd5b5f60045f3373ffffffffffffffffffffffffffffffffffffffff1673ffffffffffffffffffffffffffffffffffffffff1681526020019081526020015f2060010154146107ba576040517f08c379a00000000000000000000000000000000000000000000000000000000081526004016107b190611a1a565b60405180910390fd5b5f8390505f6002546107d187855f1c600254611134565b6107e060015487600254611134565b6107ea9190611a38565b6107f49190611aa6565b9050808214610838576040517f08c379a000000000000000000000000000000000000000000000000000000000815260040161082f90611b20565b60405180910390fd5b8560045f3373ffffffffffffffffffffffffffffffffffffffff1673ffffffffffffffffffffffffffffffffffffffff1681526020019081526020015f20600101819055503373ffffffffffffffffffffffffffffffffffffffff167f72100d7b14d227d8b47b91d02fd7b60a2f088ac731aa813940a3533032145b41876040516108c39190611488565b60405180910390a2505050505050565b6004602052805f5260405f205f91509050805f015f9054906101000a900460ff1690805f0160019054906101000a900460ff16908060010154908060020154905084565b5f5f9054906101000a900473ffffffffffffffffffffffffffffffffffffffff1673ffffffffffffffffffffffffffffffffffffffff163373ffffffffffffffffffffffffffffffffffffffff16146109a5576040517f08c379a000000000000000000000000000000000000000000000000000000000815260040161099c90611692565b60405180910390fd5b5f73ffffffffffffffffffffffffffffffffffffffff168173ffffffffffffffffffffffffffffffffffffffff1603610a13576040517f08c379a0000000000000000000000000000000000000000000000000000000008152600401610a0a90611b88565b60405180910390fd5b5f5f5f9054906101000a900473ffffffffffffffffffffffffffffffffffffffff169050815f5f6101000a81548173ffffffffffffffffffffffffffffffffffffffff021916908373ffffffffffffffffffffffffffffffffffffffff1602179055508173ffffffffffffffffffffffffffffffffffffffff168173ffffffffffffffffffffffffffffffffffffffff167fb532073b38c83145e3e5135377a08bf9aab55bc0fd7c1179cd4fb995d2a5159c60405160405180910390a35050565b60075481565b5f5f9054906101000a900473ffffffffffffffffffffffffffffffffffffffff1673ffffffffffffffffffffffffffffffffffffffff163373ffffffffffffffffffffffffffffffffffffffff1614610b68576040517f08c379a0000000000000000000000000000000000000000000000000000000008152600401610b5f90611692565b60405180910390fd5b5f5f90505b8151811015610d87575f828281518110610b8a57610b89611ba6565b5b6020026020010151905060045f8273ffffffffffffffffffffffffffffffffffffffff1673ffffffffffffffffffffffffffffffffffffffff1681526020019081526020015f205f015f9054906101000a900460ff1615610c20576040517f08c379a0000000000000000000000000000000000000000000000000000000008152600401610c1790611c1d565b60405180910390fd5b60405180608001604052806001151581526020015f151581526020015f81526020015f81525060045f8373ffffffffffffffffffffffffffffffffffffffff1673ffffffffffffffffffffffffffffffffffffffff1681526020019081526020015f205f820151815f015f6101000a81548160ff0219169083151502179055506020820151815f0160016101000a81548160ff0219169083151502179055506040820151816001015560608201518160020155905050600581908060018154018082558091505060019003905f5260205f20015f9091909190916101000a81548173ffffffffffffffffffffffffffffffffffffffff021916908373ffffffffffffffffffffffffffffffffffffffff1602179055508073ffffffffffffffffffffffffffffffffffffffff167fb6be2187d059cc2a55fe29e0e503b566e1e0f8c8780096e185429350acffd3dd60405160405180910390a2508080600101915050610b6d565b5050565b60015481565b60025481565b5f60058054905090505f600190505f5f90505b82811015610f58575f60045f60058481548110610dca57610dc9611ba6565b5b905f5260205f20015f9054906101000a900473ffffffffffffffffffffffffffffffffffffffff1673ffffffffffffffffffffffffffffffffffffffff1673ffffffffffffffffffffffffffffffffffffffff1681526020019081526020015f206001015414610f4b578160045f60058481548110610e4c57610e4b611ba6565b5b905f5260205f20015f9054906101000a900473ffffffffffffffffffffffffffffffffffffffff1673ffffffffffffffffffffffffffffffffffffffff1673ffffffffffffffffffffffffffffffffffffffff1681526020019081526020015f206002018190555060025460045f60058481548110610ece57610ecd611ba6565b5b905f5260205f20015f9054906101000a900473ffffffffffffffffffffffffffffffffffffffff1673ffffffffffffffffffffffffffffffffffffffff1673ffffffffffffffffffffffffffffffffffffffff1681526020019081526020015f206001015483610f3e9190611a38565b610f489190611aa6565b91505b8080600101915050610daa565b50600190505f8290505b5f81101561112f575f60045f60058481548110610f8257610f81611ba6565b5b905f5260205f20015f9054906101000a900473ffffffffffffffffffffffffffffffffffffffff1673ffffffffffffffffffffffffffffffffffffffff1673ffffffffffffffffffffffffffffffffffffffff1681526020019081526020015f20600101541461111c578160045f6005848154811061100457611003611ba6565b5b905f5260205f20015f9054906101000a900473ffffffffffffffffffffffffffffffffffffffff1673ffffffffffffffffffffffffffffffffffffffff1673ffffffffffffffffffffffffffffffffffffffff1681526020019081526020015f206002018190555060025461110460045f6005858154811061108957611088611ba6565b5b905f5260205f20015f9054906101000a900473ffffffffffffffffffffffffffffffffffffffff1673ffffffffffffffffffffffffffffffffffffffff1673ffffffffffffffffffffffffffffffffffffffff1681526020019081526020015f2060010154600280546110fc9190611c3b565b600254611134565b8361110f9190611a38565b6111199190611aa6565b91505b808061112790611c6e565b915050610f62565b505050565b5f5f602080602087878760405160200161115396959493929190611c95565b60405160208183030381529060405290505f602067ffffffffffffffff8111156111805761117f6114b5565b5b6040519080825280601f01601f1916602001820160405280156111b25781602001600182028036833780820191505090505b5090505f602080830184516020860160056107d05a03fa90508061120b576040517f08c379a000000000000000000000000000000000000000000000000000000000815260040161120290611d4e565b60405180910390fd5b8180602001905181019061121f9190611d80565b93505050509392505050565b5f604051905090565b5f5ffd5b5f5ffd5b5f819050919050565b61124e8161123c565b8114611258575f5ffd5b50565b5f8135905061126981611245565b92915050565b5f6020828403121561128457611283611234565b5b5f6112918482850161125b565b91505092915050565b5f73ffffffffffffffffffffffffffffffffffffffff82169050919050565b5f6112c38261129a565b9050919050565b6112d3816112b9565b82525050565b5f6020820190506112ec5f8301846112ca565b92915050565b6112fb816112b9565b8114611305575f5ffd5b50565b5f81359050611316816112f2565b92915050565b5f5f6040838503121561133257611331611234565b5b5f61133f8582860161125b565b925050602061135085828601611308565b9150509250929050565b5f819050919050565b61136c8161135a565b8114611376575f5ffd5b50565b5f8135905061138781611363565b92915050565b5f5f5f5f608085870312156113a5576113a4611234565b5b5f6113b28782880161125b565b94505060206113c38782880161125b565b93505060406113d48782880161125b565b92505060606113e587828801611379565b91505092959194509250565b5f6020828403121561140657611405611234565b5b5f61141384828501611308565b91505092915050565b5f8115159050919050565b6114308161141c565b82525050565b61143f8161123c565b82525050565b5f6080820190506114585f830187611427565b6114656020830186611427565b6114726040830185611436565b61147f6060830184611436565b95945050505050565b5f60208201905061149b5f830184611436565b92915050565b5f5ffd5b5f601f19601f8301169050919050565b7f4e487b71000000000000000000000000000000000000000000000000000000005f52604160045260245ffd5b6114eb826114a5565b810181811067ffffffffffffffff8211171561150a576115096114b5565b5b80604052505050565b5f61151c61122b565b905061152882826114e2565b919050565b5f67ffffffffffffffff821115611547576115466114b5565b5b602082029050602081019050919050565b5f5ffd5b5f61156e6115698461152d565b611513565b9050808382526020820190506020840283018581111561159157611590611558565b5b835b818110156115ba57806115a68882611308565b845260208401935050602081019050611593565b5050509392505050565b5f82601f8301126115d8576115d76114a1565b5b81356115e884826020860161155c565b91505092915050565b5f6020828403121561160657611605611234565b5b5f82013567ffffffffffffffff81111561162357611622611238565b5b61162f848285016115c4565b91505092915050565b5f82825260208201905092915050565b7f42756c6c6574696e3a206f6e6c79206f776e65720000000000000000000000005f82015250565b5f61167c601483611638565b915061168782611648565b602082019050919050565b5f6020820190508181035f8301526116a981611670565b9050919050565b7f4e487b71000000000000000000000000000000000000000000000000000000005f52601160045260245ffd5b5f60ff82169050919050565b5f6116f3826116dd565b915060ff8203611706576117056116b0565b5b600182019050919050565b61171a816116dd565b82525050565b5f6020820190506117335f830184611711565b92915050565b7f696e76616c69642063616e6469646174652061646472657373000000000000005f82015250565b5f61176d601983611638565b915061177882611739565b602082019050919050565b5f6020820190508181035f83015261179a81611761565b9050919050565b7f63616e646964617465496420616c7265616479207573656400000000000000005f82015250565b5f6117d5601883611638565b91506117e0826117a1565b602082019050919050565b5f6020820190508181035f830152611802816117c9565b9050919050565b5f6118138261123c565b915061181e8361123c565b9250828201905080821115611836576118356116b0565b5b92915050565b5f819050919050565b6118566118518261123c565b61183c565b82525050565b5f6118678286611845565b6020820191506118778285611845565b6020820191506118878284611845565b602082019150819050949350505050565b7f696e76616c6964206e00000000000000000000000000000000000000000000005f82015250565b5f6118cc600983611638565b91506118d782611898565b602082019050919050565b5f6020820190508181035f8301526118f9816118c0565b9050919050565b7f58206e6f7420696e207468652067726f757000000000000000000000000000005f82015250565b5f611934601283611638565b915061193f82611900565b602082019050919050565b5f6020820190508181035f83015261196181611928565b9050919050565b7f6756206e6f7420696e207468652067726f7570000000000000000000000000005f82015250565b5f61199c601383611638565b91506119a782611968565b602082019050919050565b5f6020820190508181035f8301526119c981611990565b9050919050565b7f616c7265616479207369676e20757000000000000000000000000000000000005f82015250565b5f611a04600f83611638565b9150611a0f826119d0565b602082019050919050565b5f6020820190508181035f830152611a31816119f8565b9050919050565b5f611a428261123c565b9150611a4d8361123c565b9250828202611a5b8161123c565b91508282048414831517611a7257611a716116b0565b5b5092915050565b7f4e487b71000000000000000000000000000000000000000000000000000000005f52601260045260245ffd5b5f611ab08261123c565b9150611abb8361123c565b925082611acb57611aca611a79565b5b828206905092915050565b7f696e76616c69642070726f6f66000000000000000000000000000000000000005f82015250565b5f611b0a600d83611638565b9150611b1582611ad6565b602082019050919050565b5f6020820190508181035f830152611b3781611afe565b9050919050565b7f696e76616c6964206f776e6572000000000000000000000000000000000000005f82015250565b5f611b72600d83611638565b9150611b7d82611b3e565b602082019050919050565b5f6020820190508181035f830152611b9f81611b66565b9050919050565b7f4e487b71000000000000000000000000000000000000000000000000000000005f52603260045260245ffd5b7f766f74657220616c7265616479207265676973746572656400000000000000005f82015250565b5f611c07601883611638565b9150611c1282611bd3565b602082019050919050565b5f6020820190508181035f830152611c3481611bfb565b9050919050565b5f611c458261123c565b9150611c508361123c565b9250828203905081811115611c6857611c676116b0565b5b92915050565b5f611c788261123c565b91505f8203611c8a57611c896116b0565b5b600182039050919050565b5f611ca08289611845565b602082019150611cb08288611845565b602082019150611cc08287611845565b602082019150611cd08286611845565b602082019150611ce08285611845565b602082019150611cf08284611845565b602082019150819050979650505050505050565b7f6d6f64657870206661696c6564000000000000000000000000000000000000005f82015250565b5f611d38600d83611638565b9150611d4382611d04565b602082019050919050565b5f6020820190508181035f830152611d6581611d2c565b9050919050565b5f81519050611d7a81611245565b92915050565b5f60208284031215611d9557611d94611234565b5b5f611da284828501611d6c565b9150509291505056fea2646970667358221220b1b484a73cbd497f59453a3dbd2cc0364f0c2387d4084f2494d85060888d93b164736f6c634300081e0033","linkReferences":{}},"methodIdentifiers":{"candidateCount()":"a9a981a3","candidates(uint256)":"3477ee2e","changeOwner(address)":"a6f9dae1","g()":"e2179b8e","nextState()":"14007c6d","owner()":"8da5cb5b","q()":"fd3ab282","registerCandidate(uint256,address)":"4830a136","registerVoters(address[])":"d55ec9c1","voterList(uint256)":"50e2e8af","voterSignup(uint256,uint256,uint256,bytes32)":"993e6cf4","voters(address)":"a3ec138d"},"id":16}